{
  "_format": "hh-sol-artifact-1",
  "contractName": "Reputation",
  "sourceName": "contracts/Reputation.sol",
  "abi": [
    {
      "anonymous": false,
      "inputs": [
        {
          "indexed": false,
          "internalType": "string",
          "name": "nodeId",
          "type": "string"
        },
        {
          "indexed": false,
          "internalType": "uint256",
          "name": "reputation",
          "type": "uint256"
        },
        {
          "indexed": false,
          "internalType": "bool",
          "name": "status",
          "type": "bool"
        }
      ],
      "name": "NodeRegistered",
      "type": "event"
    },
    {
      "anonymous": false,
      "inputs": [
        {
          "indexed": false,
          "internalType": "string",
          "name": "nodeId",
          "type": "string"
        },
        {
          "indexed": false,
          "internalType": "uint256",
          "name": "oldReputation",
          "type": "uint256"
        },
        {
          "indexed": false,
          "internalType": "uint256",
          "name": "newReputation",
          "type": "uint256"
        },
        {
          "indexed": false,
          "internalType": "bool",
          "name": "status",
          "type": "bool"
        }
      ],
      "name": "ReputationUpdated",
      "type": "event"
    },
    {
      "inputs": [],
      "name": "TRUST_THRESHOLD",
      "outputs": [
        {
          "internalType": "uint256",
          "name": "",
          "type": "uint256"
        }
      ],
      "stateMutability": "view",
      "type": "function"
    },
    {
      "inputs": [
        {
          "internalType": "string",
          "name": "_nodeId",
          "type": "string"
        },
        {
          "internalType": "uint256",
          "name": "points",
          "type": "uint256"
        }
      ],
      "name": "decreaseReputation",
      "outputs": [],
      "stateMutability": "nonpayable",
      "type": "function"
    },
    {
      "inputs": [],
      "name": "getAllNodeIds",
      "outputs": [
        {
          "internalType": "string[]",
          "name": "",
          "type": "string[]"
        }
      ],
      "stateMutability": "view",
      "type": "function"
    },
    {
      "inputs": [],
      "name": "getAllNodes",
      "outputs": [
        {
          "components": [
            {
              "internalType": "string",
              "name": "nodeId",
              "type": "string"
            },
            {
              "internalType": "uint256",
              "name": "reputation",
              "type": "uint256"
            },
            {
              "internalType": "bool",
              "name": "status",
              "type": "bool"
            }
          ],
          "internalType": "struct Reputation.Node[]",
          "name": "",
          "type": "tuple[]"
        }
      ],
      "stateMutability": "view",
      "type": "function"
    },
    {
      "inputs": [
        {
          "internalType": "string",
          "name": "_nodeId",
          "type": "string"
        }
      ],
      "name": "getNode",
      "outputs": [
        {
          "internalType": "string",
          "name": "",
          "type": "string"
        },
        {
          "internalType": "uint256",
          "name": "",
          "type": "uint256"
        },
        {
          "internalType": "bool",
          "name": "",
          "type": "bool"
        }
      ],
      "stateMutability": "view",
      "type": "function"
    },
    {
      "inputs": [],
      "name": "getNodeCount",
      "outputs": [
        {
          "internalType": "uint256",
          "name": "",
          "type": "uint256"
        }
      ],
      "stateMutability": "view",
      "type": "function"
    },
    {
      "inputs": [
        {
          "internalType": "string",
          "name": "_nodeId",
          "type": "string"
        }
      ],
      "name": "getReputation",
      "outputs": [
        {
          "internalType": "uint256",
          "name": "",
          "type": "uint256"
        }
      ],
      "stateMutability": "view",
      "type": "function"
    },
    {
      "inputs": [
        {
          "internalType": "string",
          "name": "_nodeId",
          "type": "string"
        }
      ],
      "name": "getStatus",
      "outputs": [
        {
          "internalType": "bool",
          "name": "",
          "type": "bool"
        }
      ],
      "stateMutability": "view",
      "type": "function"
    },
    {
      "inputs": [
        {
          "internalType": "string",
          "name": "_nodeId",
          "type": "string"
        },
        {
          "internalType": "uint256",
          "name": "points",
          "type": "uint256"
        }
      ],
      "name": "increaseReputation",
      "outputs": [],
      "stateMutability": "nonpayable",
      "type": "function"
    },
    {
      "inputs": [
        {
          "internalType": "string",
          "name": "_nodeId",
          "type": "string"
        }
      ],
      "name": "registerNode",
      "outputs": [],
      "stateMutability": "nonpayable",
      "type": "function"
    }
  ],
  "bytecode": "0x6080604052348015600f57600080fd5b506118358061001f6000396000f3fe608060405234801561001057600080fd5b506004361061009e5760003560e01c80639428522a116100665780639428522a1461015b578063967cde9e1461018d578063a1174e7d146101a9578063beefc493146101c7578063fb88c3ac146101e55761009e565b806322b05ed2146100a357806327c6f43e146100d357806339bf397e146100ef5780633d1103f41461010d578063830d9cf81461013d575b600080fd5b6100bd60048036038101906100b89190610ced565b610201565b6040516100ca9190610d51565b60405180910390f35b6100ed60048036038101906100e89190610ced565b6102a8565b005b6100f7610450565b6040516101049190610d85565b60405180910390f35b61012760048036038101906101229190610ced565b61045d565b6040516101349190610d85565b60405180910390f35b6101456104f7565b6040516101529190610d85565b60405180910390f35b61017560048036038101906101709190610ced565b6104fc565b60405161018493929190610e1f565b60405180910390f35b6101a760048036038101906101a29190610e89565b610670565b005b6101b16107c2565b6040516101be919061105f565b60405180910390f35b6101cf610961565b6040516101dc9190611143565b60405180910390f35b6101ff60048036038101906101fa9190610e89565b610a3a565b005b60008060008360405161021491906111a1565b90815260200160405180910390206000018054610230906111e7565b905011610272576040517f08c379a000000000000000000000000000000000000000000000000000000000815260040161026990611264565b60405180910390fd5b60008260405161028291906111a1565b908152602001604051809103902060020160009054906101000a900460ff169050919050565b60008151116102ec576040517f08c379a00000000000000000000000000000000000000000000000000000000081526004016102e3906112d0565b60405180910390fd5b600080826040516102fd91906111a1565b90815260200160405180910390206000018054610319906111e7565b90501461035b576040517f08c379a00000000000000000000000000000000000000000000000000000000081526004016103529061133c565b60405180910390fd5b6040518060600160405280828152602001606481526020016001151581525060008260405161038a91906111a1565b908152602001604051809103902060008201518160000190816103ad9190611508565b506020820151816001015560408201518160020160006101000a81548160ff02191690831515021790555090505060018190806001815401808255809150506001900390600052602060002001600090919091909150908161040f9190611508565b507fe640f401fb45bbfecf74ee0eff961e86f9f2c00e4d3f56400521a01404427ef7816064600160405161044593929190611615565b60405180910390a150565b6000600180549050905090565b60008060008360405161047091906111a1565b9081526020016040518091039020600001805461048c906111e7565b9050116104ce576040517f08c379a00000000000000000000000000000000000000000000000000000000081526004016104c590611264565b60405180910390fd5b6000826040516104de91906111a1565b9081526020016040518091039020600101549050919050565b603281565b60606000806000808560405161051291906111a1565b9081526020016040518091039020600001805461052e906111e7565b905011610570576040517f08c379a000000000000000000000000000000000000000000000000000000000815260040161056790611264565b60405180910390fd5b6000808560405161058191906111a1565b90815260200160405180910390206040518060600160405290816000820180546105aa906111e7565b80601f01602080910402602001604051908101604052809291908181526020018280546105d6906111e7565b80156106235780601f106105f857610100808354040283529160200191610623565b820191906000526020600020905b81548152906001019060200180831161060657829003601f168201915b50505050508152602001600182015481526020016002820160009054906101000a900460ff1615151515815250509050806000015181602001518260400151935093509350509193909250565b6000808360405161068191906111a1565b9081526020016040518091039020600001805461069d906111e7565b9050116106df576040517f08c379a00000000000000000000000000000000000000000000000000000000081526004016106d690611264565b60405180910390fd5b600080836040516106f091906111a1565b9081526020016040518091039020905060008160010154905081600101548310610723576000826001018190555061073f565b828260010160008282546107379190611682565b925050819055505b60328260010154101561076a5760008260020160006101000a81548160ff0219169083151502179055505b7f520f90bc1aa0a6216a21dab52fc8fde79290105e1cfda96eb61003ab0a38f172848284600101548560020160009054906101000a900460ff166040516107b494939291906116b6565b60405180910390a150505050565b6060600060018054905067ffffffffffffffff8111156107e5576107e4610bc2565b5b60405190808252806020026020018201604052801561081e57816020015b61080b610b70565b8152602001906001900390816108035790505b50905060005b6001805490508110156109595760006001828154811061084757610846611702565b5b9060005260206000200160405161085e91906117b4565b9081526020016040518091039020604051806060016040529081600082018054610887906111e7565b80601f01602080910402602001604051908101604052809291908181526020018280546108b3906111e7565b80156109005780601f106108d557610100808354040283529160200191610900565b820191906000526020600020905b8154815290600101906020018083116108e357829003601f168201915b50505050508152602001600182015481526020016002820160009054906101000a900460ff16151515158152505082828151811061094157610940611702565b5b60200260200101819052508080600101915050610824565b508091505090565b60606001805480602002602001604051908101604052809291908181526020016000905b82821015610a315783829060005260206000200180546109a4906111e7565b80601f01602080910402602001604051908101604052809291908181526020018280546109d0906111e7565b8015610a1d5780601f106109f257610100808354040283529160200191610a1d565b820191906000526020600020905b815481529060010190602001808311610a0057829003601f168201915b505050505081526020019060010190610985565b50505050905090565b60008083604051610a4b91906111a1565b90815260200160405180910390206000018054610a67906111e7565b905011610aa9576040517f08c379a0000000000000000000000000000000000000000000000000000000008152600401610aa090611264565b60405180910390fd5b60008083604051610aba91906111a1565b9081526020016040518091039020905060008160010154905082826001016000828254610ae791906117cb565b925050819055506032826001015410610b185760018260020160006101000a81548160ff0219169083151502179055505b7f520f90bc1aa0a6216a21dab52fc8fde79290105e1cfda96eb61003ab0a38f172848284600101548560020160009054906101000a900460ff16604051610b6294939291906116b6565b60405180910390a150505050565b604051806060016040528060608152602001600081526020016000151581525090565b6000604051905090565b600080fd5b600080fd5b600080fd5b600080fd5b6000601f19601f8301169050919050565b7f4e487b7100000000000000000000000000000000000000000000000000000000600052604160045260246000fd5b610bfa82610bb1565b810181811067ffffffffffffffff82111715610c1957610c18610bc2565b5b80604052505050565b6000610c2c610b93565b9050610c388282610bf1565b919050565b600067ffffffffffffffff821115610c5857610c57610bc2565b5b610c6182610bb1565b9050602081019050919050565b82818337600083830152505050565b6000610c90610c8b84610c3d565b610c22565b905082815260208101848484011115610cac57610cab610bac565b5b610cb7848285610c6e565b509392505050565b600082601f830112610cd457610cd3610ba7565b5b8135610ce4848260208601610c7d565b91505092915050565b600060208284031215610d0357610d02610b9d565b5b600082013567ffffffffffffffff811115610d2157610d20610ba2565b5b610d2d84828501610cbf565b91505092915050565b60008115159050919050565b610d4b81610d36565b82525050565b6000602082019050610d666000830184610d42565b92915050565b6000819050919050565b610d7f81610d6c565b82525050565b6000602082019050610d9a6000830184610d76565b92915050565b600081519050919050565b600082825260208201905092915050565b60005b83811015610dda578082015181840152602081019050610dbf565b60008484015250505050565b6000610df182610da0565b610dfb8185610dab565b9350610e0b818560208601610dbc565b610e1481610bb1565b840191505092915050565b60006060820190508181036000830152610e398186610de6565b9050610e486020830185610d76565b610e556040830184610d42565b949350505050565b610e6681610d6c565b8114610e7157600080fd5b50565b600081359050610e8381610e5d565b92915050565b60008060408385031215610ea057610e9f610b9d565b5b600083013567ffffffffffffffff811115610ebe57610ebd610ba2565b5b610eca85828601610cbf565b9250506020610edb85828601610e74565b9150509250929050565b600081519050919050565b600082825260208201905092915050565b6000819050602082019050919050565b600082825260208201905092915050565b6000610f2d82610da0565b610f378185610f11565b9350610f47818560208601610dbc565b610f5081610bb1565b840191505092915050565b610f6481610d6c565b82525050565b610f7381610d36565b82525050565b60006060830160008301518482036000860152610f968282610f22565b9150506020830151610fab6020860182610f5b565b506040830151610fbe6040860182610f6a565b508091505092915050565b6000610fd58383610f79565b905092915050565b6000602082019050919050565b6000610ff582610ee5565b610fff8185610ef0565b93508360208202850161101185610f01565b8060005b8581101561104d578484038952815161102e8582610fc9565b945061103983610fdd565b925060208a01995050600181019050611015565b50829750879550505050505092915050565b600060208201905081810360008301526110798184610fea565b905092915050565b600081519050919050565b600082825260208201905092915050565b6000819050602082019050919050565b60006110b98383610f22565b905092915050565b6000602082019050919050565b60006110d982611081565b6110e3818561108c565b9350836020820285016110f58561109d565b8060005b85811015611131578484038952815161111285826110ad565b945061111d836110c1565b925060208a019950506001810190506110f9565b50829750879550505050505092915050565b6000602082019050818103600083015261115d81846110ce565b905092915050565b600081905092915050565b600061117b82610da0565b6111858185611165565b9350611195818560208601610dbc565b80840191505092915050565b60006111ad8284611170565b915081905092915050565b7f4e487b7100000000000000000000000000000000000000000000000000000000600052602260045260246000fd5b600060028204905060018216806111ff57607f821691505b602082108103611212576112116111b8565b5b50919050565b7f4e6f6465206e6f7420666f756e64000000000000000000000000000000000000600082015250565b600061124e600e83610dab565b915061125982611218565b602082019050919050565b6000602082019050818103600083015261127d81611241565b9050919050565b7f4e6f64652049442063616e6e6f7420626520656d707479000000000000000000600082015250565b60006112ba601783610dab565b91506112c582611284565b602082019050919050565b600060208201905081810360008301526112e9816112ad565b9050919050565b7f4e6f646520616c72656164792072656769737465726564000000000000000000600082015250565b6000611326601783610dab565b9150611331826112f0565b602082019050919050565b6000602082019050818103600083015261135581611319565b9050919050565b60008190508160005260206000209050919050565b60006020601f8301049050919050565b600082821b905092915050565b6000600883026113be7fffffffffffffffffffffffffffffffffffffffffffffffffffffffffffffffff82611381565b6113c88683611381565b95508019841693508086168417925050509392505050565b6000819050919050565b60006114056114006113fb84610d6c565b6113e0565b610d6c565b9050919050565b6000819050919050565b61141f836113ea565b61143361142b8261140c565b84845461138e565b825550505050565b600090565b61144861143b565b611453818484611416565b505050565b5b818110156114775761146c600082611440565b600181019050611459565b5050565b601f8211156114bc5761148d8161135c565b61149684611371565b810160208510156114a5578190505b6114b96114b185611371565b830182611458565b50505b505050565b600082821c905092915050565b60006114df600019846008026114c1565b1980831691505092915050565b60006114f883836114ce565b9150826002028217905092915050565b61151182610da0565b67ffffffffffffffff81111561152a57611529610bc2565b5b61153482546111e7565b61153f82828561147b565b600060209050601f8311600181146115725760008415611560578287015190505b61156a85826114ec565b8655506115d2565b601f1984166115808661135c565b60005b828110156115a857848901518255600182019150602085019450602081019050611583565b868310156115c557848901516115c1601f8916826114ce565b8355505b6001600288020188555050505b505050505050565b6000819050919050565b60006115ff6115fa6115f5846115da565b6113e0565b610d6c565b9050919050565b61160f816115e4565b82525050565b6000606082019050818103600083015261162f8186610de6565b905061163e6020830185611606565b61164b6040830184610d42565b949350505050565b7f4e487b7100000000000000000000000000000000000000000000000000000000600052601160045260246000fd5b600061168d82610d6c565b915061169883610d6c565b92508282039050818111156116b0576116af611653565b5b92915050565b600060808201905081810360008301526116d08187610de6565b90506116df6020830186610d76565b6116ec6040830185610d76565b6116f96060830184610d42565b95945050505050565b7f4e487b7100000000000000000000000000000000000000000000000000000000600052603260045260246000fd5b6000815461173e816111e7565b6117488186611165565b945060018216600081146117635760018114611778576117ab565b60ff19831686528115158202860193506117ab565b6117818561135c565b60005b838110156117a357815481890152600182019150602081019050611784565b838801955050505b50505092915050565b60006117c08284611731565b915081905092915050565b60006117d682610d6c565b91506117e183610d6c565b92508282019050808211156117f9576117f8611653565b5b9291505056fea2646970667358221220f343a60c02de9982ea89a2e5ea35abc7d3345efb5f0569593609b063ed615f6c64736f6c634300081c0033",
  "linkReferences": {},
  "deployedLinkReferences": {}
}